{
  "_format": "hh-sol-artifact-1",
  "contractName": "voting",
  "sourceName": "contracts/voting.sol",
  "abi": [
    {
      "inputs": [],
      "stateMutability": "nonpayable",
      "type": "constructor"
    },
    {
      "inputs": [
        {
          "internalType": "address",
          "name": "addr1",
          "type": "address"
        }
      ],
      "name": "check",
      "outputs": [
        {
          "internalType": "string",
          "name": "abc",
          "type": "string"
        }
      ],
      "stateMutability": "view",
      "type": "function"
    },
    {
      "inputs": [],
      "name": "noOfVotes",
      "outputs": [
        {
          "internalType": "uint256",
          "name": "",
          "type": "uint256"
        }
      ],
      "stateMutability": "view",
      "type": "function"
    },
    {
      "inputs": [],
      "name": "owner",
      "outputs": [
        {
          "internalType": "address",
          "name": "",
          "type": "address"
        }
      ],
      "stateMutability": "view",
      "type": "function"
    },
    {
      "inputs": [
        {
          "internalType": "string",
          "name": "_name",
          "type": "string"
        },
        {
          "internalType": "uint256",
          "name": "_age",
          "type": "uint256"
        }
      ],
      "name": "user",
      "outputs": [],
      "stateMutability": "nonpayable",
      "type": "function"
    },
    {
      "inputs": [
        {
          "internalType": "address",
          "name": "",
          "type": "address"
        }
      ],
      "name": "votes",
      "outputs": [
        {
          "internalType": "uint256",
          "name": "age",
          "type": "uint256"
        },
        {
          "internalType": "string",
          "name": "name",
          "type": "string"
        },
        {
          "internalType": "address",
          "name": "addr",
          "type": "address"
        }
      ],
      "stateMutability": "view",
      "type": "function"
    }
  ],
  "bytecode": "0x60806040526000805534801561001457600080fd5b5033600160006101000a81548173ffffffffffffffffffffffffffffffffffffffff021916908373ffffffffffffffffffffffffffffffffffffffff160217905550610d7b806100656000396000f3fe608060405234801561001057600080fd5b50600436106100575760003560e01c80638da5cb5b1461005c578063b3514f891461007a578063c23697a814610098578063c9a41591146100c8578063d8bff5a5146100e4575b600080fd5b610064610116565b60405161007191906105af565b60405180910390f35b61008261013c565b60405161008f91906105e3565b60405180910390f35b6100b260048036038101906100ad919061063e565b610142565b6040516100bf91906106fb565b60405180910390f35b6100e260048036038101906100dd919061087e565b610209565b005b6100fe60048036038101906100f9919061063e565b61049c565b60405161010d939291906108da565b60405180910390f35b600160009054906101000a900473ffffffffffffffffffffffffffffffffffffffff1681565b60005481565b60606012600260008473ffffffffffffffffffffffffffffffffffffffff1673ffffffffffffffffffffffffffffffffffffffff16815260200190815260200160002060000154106101cb576040518060400160405280601881526020017f796f752061726520656c696769626c6520746f20766f746500000000000000008152509050610204565b6040518060400160405280601481526020017f796f7520617265206e6f7420656c696769626c6500000000000000000000000081525090505b919050565b3373ffffffffffffffffffffffffffffffffffffffff16600160009054906101000a900473ffffffffffffffffffffffffffffffffffffffff1673ffffffffffffffffffffffffffffffffffffffff1603610299576040517f08c379a000000000000000000000000000000000000000000000000000000000815260040161029090610964565b60405180910390fd5b600260003373ffffffffffffffffffffffffffffffffffffffff1673ffffffffffffffffffffffffffffffffffffffff16815260200190815260200160002060020160009054906101000a900473ffffffffffffffffffffffffffffffffffffffff1673ffffffffffffffffffffffffffffffffffffffff163373ffffffffffffffffffffffffffffffffffffffff1603610369576040517f08c379a0000000000000000000000000000000000000000000000000000000008152600401610360906109d0565b60405180910390fd5b81600260003373ffffffffffffffffffffffffffffffffffffffff1673ffffffffffffffffffffffffffffffffffffffff16815260200190815260200160002060010190816103b89190610bfc565b5080600260003373ffffffffffffffffffffffffffffffffffffffff1673ffffffffffffffffffffffffffffffffffffffff1681526020019081526020016000206000018190555033600260003373ffffffffffffffffffffffffffffffffffffffff1673ffffffffffffffffffffffffffffffffffffffff16815260200190815260200160002060020160006101000a81548173ffffffffffffffffffffffffffffffffffffffff021916908373ffffffffffffffffffffffffffffffffffffffff16021790555060008081548092919061049390610cfd565b91905055505050565b60026020528060005260406000206000915090508060000154908060010180546104c590610a1f565b80601f01602080910402602001604051908101604052809291908181526020018280546104f190610a1f565b801561053e5780601f106105135761010080835404028352916020019161053e565b820191906000526020600020905b81548152906001019060200180831161052157829003601f168201915b5050505050908060020160009054906101000a900473ffffffffffffffffffffffffffffffffffffffff16905083565b600073ffffffffffffffffffffffffffffffffffffffff82169050919050565b60006105998261056e565b9050919050565b6105a98161058e565b82525050565b60006020820190506105c460008301846105a0565b92915050565b6000819050919050565b6105dd816105ca565b82525050565b60006020820190506105f860008301846105d4565b92915050565b6000604051905090565b600080fd5b600080fd5b61061b8161058e565b811461062657600080fd5b50565b60008135905061063881610612565b92915050565b60006020828403121561065457610653610608565b5b600061066284828501610629565b91505092915050565b600081519050919050565b600082825260208201905092915050565b60005b838110156106a557808201518184015260208101905061068a565b60008484015250505050565b6000601f19601f8301169050919050565b60006106cd8261066b565b6106d78185610676565b93506106e7818560208601610687565b6106f0816106b1565b840191505092915050565b6000602082019050818103600083015261071581846106c2565b905092915050565b600080fd5b600080fd5b7f4e487b7100000000000000000000000000000000000000000000000000000000600052604160045260246000fd5b61075f826106b1565b810181811067ffffffffffffffff8211171561077e5761077d610727565b5b80604052505050565b60006107916105fe565b905061079d8282610756565b919050565b600067ffffffffffffffff8211156107bd576107bc610727565b5b6107c6826106b1565b9050602081019050919050565b82818337600083830152505050565b60006107f56107f0846107a2565b610787565b90508281526020810184848401111561081157610810610722565b5b61081c8482856107d3565b509392505050565b600082601f8301126108395761083861071d565b5b81356108498482602086016107e2565b91505092915050565b61085b816105ca565b811461086657600080fd5b50565b60008135905061087881610852565b92915050565b6000806040838503121561089557610894610608565b5b600083013567ffffffffffffffff8111156108b3576108b261060d565b5b6108bf85828601610824565b92505060206108d085828601610869565b9150509250929050565b60006060820190506108ef60008301866105d4565b818103602083015261090181856106c2565b905061091060408301846105a0565b949350505050565b7f796f7520617265206f776e657220796f752063616e7420766f74650000000000600082015250565b600061094e601b83610676565b915061095982610918565b602082019050919050565b6000602082019050818103600083015261097d81610941565b9050919050565b7f616c726561647920766f74656400000000000000000000000000000000000000600082015250565b60006109ba600d83610676565b91506109c582610984565b602082019050919050565b600060208201905081810360008301526109e9816109ad565b9050919050565b7f4e487b7100000000000000000000000000000000000000000000000000000000600052602260045260246000fd5b60006002820490506001821680610a3757607f821691505b602082108103610a4a57610a496109f0565b5b50919050565b60008190508160005260206000209050919050565b60006020601f8301049050919050565b600082821b905092915050565b600060088302610ab27fffffffffffffffffffffffffffffffffffffffffffffffffffffffffffffffff82610a75565b610abc8683610a75565b95508019841693508086168417925050509392505050565b6000819050919050565b6000610af9610af4610aef846105ca565b610ad4565b6105ca565b9050919050565b6000819050919050565b610b1383610ade565b610b27610b1f82610b00565b848454610a82565b825550505050565b600090565b610b3c610b2f565b610b47818484610b0a565b505050565b5b81811015610b6b57610b60600082610b34565b600181019050610b4d565b5050565b601f821115610bb057610b8181610a50565b610b8a84610a65565b81016020851015610b99578190505b610bad610ba585610a65565b830182610b4c565b50505b505050565b600082821c905092915050565b6000610bd360001984600802610bb5565b1980831691505092915050565b6000610bec8383610bc2565b9150826002028217905092915050565b610c058261066b565b67ffffffffffffffff811115610c1e57610c1d610727565b5b610c288254610a1f565b610c33828285610b6f565b600060209050601f831160018114610c665760008415610c54578287015190505b610c5e8582610be0565b865550610cc6565b601f198416610c7486610a50565b60005b82811015610c9c57848901518255600182019150602085019450602081019050610c77565b86831015610cb95784890151610cb5601f891682610bc2565b8355505b6001600288020188555050505b505050505050565b7f4e487b7100000000000000000000000000000000000000000000000000000000600052601160045260246000fd5b6000610d08826105ca565b91507fffffffffffffffffffffffffffffffffffffffffffffffffffffffffffffffff8203610d3a57610d39610cce565b5b60018201905091905056fea2646970667358221220180d89a79e3c9cc2e921d4a65753a69e153c4b1ea31a106e71f1714a2ea2f90664736f6c63430008130033",
  "linkReferences": {},
  "deployedLinkReferences": {}
}